{
  "contractName": "MyContract",
  "abi": [
    {
      "inputs": [
        {
          "internalType": "string",
          "name": "_message",
          "type": "string"
        }
      ],
      "stateMutability": "nonpayable",
      "type": "constructor"
    },
    {
      "inputs": [],
      "name": "message",
      "outputs": [
        {
          "internalType": "string",
          "name": "",
          "type": "string"
        }
      ],
      "stateMutability": "view",
      "type": "function",
      "constant": true
    },
    {
      "inputs": [
        {
          "internalType": "string",
          "name": "_newMessage",
          "type": "string"
        }
      ],
      "name": "setMessage",
      "outputs": [],
      "stateMutability": "nonpayable",
      "type": "function"
    }
  ],
  "bytecode": "0x608060405234801561001057600080fd5b5060405161061838038061061883398101604081905261002f91610058565b600061003b82826101aa565b5050610269565b634e487b7160e01b600052604160045260246000fd5b6000602080838503121561006b57600080fd5b82516001600160401b038082111561008257600080fd5b818501915085601f83011261009657600080fd5b8151818111156100a8576100a8610042565b604051601f8201601f19908116603f011681019083821181831017156100d0576100d0610042565b8160405282815288868487010111156100e857600080fd5b600093505b8284101561010a57848401860151818501870152928501926100ed565b600086848301015280965050505050505092915050565b600181811c9082168061013557607f821691505b60208210810361015557634e487b7160e01b600052602260045260246000fd5b50919050565b601f8211156101a557600081815260208120601f850160051c810160208610156101825750805b601f850160051c820191505b818110156101a15782815560010161018e565b5050505b505050565b81516001600160401b038111156101c3576101c3610042565b6101d7816101d18454610121565b8461015b565b602080601f83116001811461020c57600084156101f45750858301515b600019600386901b1c1916600185901b1785556101a1565b600085815260208120601f198616915b8281101561023b5788860151825594840194600190910190840161021c565b50858210156102595787850151600019600388901b60f8161c191681555b5050505050600190811b01905550565b6103a0806102786000396000f3fe608060405234801561001057600080fd5b50600436106100365760003560e01c8063368b87721461003b578063e21f37ce14610050575b600080fd5b61004e610049366004610122565b61006e565b005b61005861007e565b60405161006591906101d3565b60405180910390f35b600061007a82826102aa565b5050565b6000805461008b90610221565b80601f01602080910402602001604051908101604052809291908181526020018280546100b790610221565b80156101045780601f106100d957610100808354040283529160200191610104565b820191906000526020600020905b8154815290600101906020018083116100e757829003601f168201915b505050505081565b634e487b7160e01b600052604160045260246000fd5b60006020828403121561013457600080fd5b813567ffffffffffffffff8082111561014c57600080fd5b818401915084601f83011261016057600080fd5b8135818111156101725761017261010c565b604051601f8201601f19908116603f0116810190838211818310171561019a5761019a61010c565b816040528281528760208487010111156101b357600080fd5b826020860160208301376000928101602001929092525095945050505050565b600060208083528351808285015260005b81811015610200578581018301518582016040015282016101e4565b506000604082860101526040601f19601f8301168501019250505092915050565b600181811c9082168061023557607f821691505b60208210810361025557634e487b7160e01b600052602260045260246000fd5b50919050565b601f8211156102a557600081815260208120601f850160051c810160208610156102825750805b601f850160051c820191505b818110156102a15782815560010161028e565b5050505b505050565b815167ffffffffffffffff8111156102c4576102c461010c565b6102d8816102d28454610221565b8461025b565b602080601f83116001811461030d57600084156102f55750858301515b600019600386901b1c1916600185901b1785556102a1565b600085815260208120601f198616915b8281101561033c5788860151825594840194600190910190840161031d565b508582101561035a5787850151600019600388901b60f8161c191681555b5050505050600190811b0190555056fea26469706673582212201b8693272314889a94a1a48633dec2bfdac3bb12672dd19b8cdb402ce89830e564736f6c63430008150033",
  "immutableReferences": {},
  "source": "// SPDX-License-Identifier: MIT\r\npragma solidity ^0.8.0;\r\n\r\ncontract MyContract {\r\n    string public message;\r\n\r\n    constructor(string memory _message) {\r\n        message = _message;\r\n    }\r\n\r\n    function setMessage(string memory _newMessage) public {\r\n        message = _newMessage;\r\n    }\r\n}\r\n",
  "sourcePath": "C:\\Users\\User\\Desktop\\bcea\\contracts\\MyContract.sol",
  "compiler": {
    "name": "solc",
    "version": "0.8.21+commit.d9974bed.Emscripten.clang"
  },
  "schemaVersion": "3.4.16",
  "updatedAt": "2025-01-13T18:57:01.381Z",
  "networkType": "ethereum",
  "devdoc": {
    "kind": "dev",
    "methods": {},
    "version": 1
  },
  "userdoc": {
    "kind": "user",
    "methods": {},
    "version": 1
  }
}