{
  "contractName": "PropertyRental",
  "abi": [
    {
      "anonymous": false,
      "inputs": [
        {
          "indexed": false,
          "internalType": "uint256",
          "name": "propertyId",
          "type": "uint256"
        },
        {
          "indexed": false,
          "internalType": "address",
          "name": "renter",
          "type": "address"
        }
      ],
      "name": "PropertyRented",
      "type": "event"
    },
    {
      "inputs": [],
      "name": "nextPropertyId",
      "outputs": [
        {
          "internalType": "uint256",
          "name": "",
          "type": "uint256"
        }
      ],
      "stateMutability": "view",
      "type": "function",
      "constant": true
    },
    {
      "inputs": [
        {
          "internalType": "uint256",
          "name": "",
          "type": "uint256"
        }
      ],
      "name": "properties",
      "outputs": [
        {
          "internalType": "uint256",
          "name": "id",
          "type": "uint256"
        },
        {
          "internalType": "address",
          "name": "owner",
          "type": "address"
        },
        {
          "internalType": "string",
          "name": "name",
          "type": "string"
        },
        {
          "internalType": "uint256",
          "name": "pricePerDay",
          "type": "uint256"
        },
        {
          "internalType": "bool",
          "name": "isAvailable",
          "type": "bool"
        }
      ],
      "stateMutability": "view",
      "type": "function",
      "constant": true
    },
    {
      "inputs": [
        {
          "internalType": "address",
          "name": "",
          "type": "address"
        }
      ],
      "name": "rentedProperties",
      "outputs": [
        {
          "internalType": "uint256",
          "name": "",
          "type": "uint256"
        }
      ],
      "stateMutability": "view",
      "type": "function",
      "constant": true
    },
    {
      "inputs": [
        {
          "internalType": "address",
          "name": "",
          "type": "address"
        }
      ],
      "name": "userRoles",
      "outputs": [
        {
          "internalType": "enum PropertyRental.UserRole",
          "name": "",
          "type": "uint8"
        }
      ],
      "stateMutability": "view",
      "type": "function",
      "constant": true
    },
    {
      "inputs": [],
      "name": "registerAsOwner",
      "outputs": [],
      "stateMutability": "nonpayable",
      "type": "function"
    },
    {
      "inputs": [],
      "name": "registerAsRenter",
      "outputs": [],
      "stateMutability": "nonpayable",
      "type": "function"
    },
    {
      "inputs": [
        {
          "internalType": "string",
          "name": "name",
          "type": "string"
        },
        {
          "internalType": "uint256",
          "name": "pricePerDay",
          "type": "uint256"
        }
      ],
      "name": "addProperty",
      "outputs": [],
      "stateMutability": "nonpayable",
      "type": "function"
    },
    {
      "inputs": [
        {
          "internalType": "uint256",
          "name": "propertyId",
          "type": "uint256"
        }
      ],
      "name": "rentProperty",
      "outputs": [],
      "stateMutability": "payable",
      "type": "function",
      "payable": true
    },
    {
      "inputs": [
        {
          "internalType": "uint256",
          "name": "propertyId",
          "type": "uint256"
        }
      ],
      "name": "returnProperty",
      "outputs": [],
      "stateMutability": "nonpayable",
      "type": "function"
    }
  ],
  "bytecode": "0x608060405234801561001057600080fd5b50610988806100206000396000f3fe6080604052600436106100865760003560e01c806374d5e1001161005957806374d5e100146101185780639d36ab6c14610155578063c0cc57a414610168578063f54e1aef1461017d578063f7b108081461019d57600080fd5b80630ac6dd871461008b5780631b554e3a146100a257806339500f34146100e2578063749f0427146100f8575b600080fd5b34801561009757600080fd5b506100a06101ce565b005b3480156100ae57600080fd5b506100cf6100bd366004610615565b60026020526000908152604090205481565b6040519081526020015b60405180910390f35b3480156100ee57600080fd5b506100cf60035481565b34801561010457600080fd5b506100a0610113366004610645565b6101f2565b34801561012457600080fd5b50610148610133366004610615565b60006020819052908152604090205460ff1681565b6040516100d99190610674565b6100a0610163366004610645565b610285565b34801561017457600080fd5b506100a061040c565b34801561018957600080fd5b506100a06101983660046106b2565b61042c565b3480156101a957600080fd5b506101bd6101b8366004610645565b61054f565b6040516100d9959493929190610767565b33600090815260208190526040902080546002919060ff19166001835b0217905550565b6000818152600160208190526040909120015481906001600160a01b031633146102635760405162461bcd60e51b815260206004820152601e60248201527f4e6f7420746865206f776e6572206f6620746869732070726f7065727479000060448201526064015b60405180910390fd5b506000908152600160208190526040909120600401805460ff19169091179055565b60023360009081526020819052604090205460ff1660028111156102ab576102ab61065e565b146102f15760405162461bcd60e51b815260206004820152601660248201527521b0b63632b91034b9903737ba1030903932b73a32b960511b604482015260640161025a565b600081815260016020526040902060040154819060ff1661034d5760405162461bcd60e51b815260206004820152601660248201527550726f7065727479206e6f7420617661696c61626c6560501b604482015260640161025a565b6000828152600160205260409020600381015434146103ae5760405162461bcd60e51b815260206004820152601860248201527f496e636f7272656374207061796d656e7420616d6f756e740000000000000000604482015260640161025a565b60048101805460ff19169055336000818152600260209081526040918290208690558151868152908101929092527f914bb2c4cb4cd0ff8a24b0fa464c8a78b230597bf0f7d94f93210371e67e5435910160405180910390a1505050565b33600090815260208190526040902080546001919060ff191682806101eb565b60013360009081526020819052604090205460ff1660028111156104525761045261065e565b146104985760405162461bcd60e51b815260206004820152601660248201527521b0b63632b91034b9903737ba1030b71037bbb732b960511b604482015260640161025a565b6040805160a081018252600354808252336020808401918252838501878152606085018790526001608086018190526000948552918290529490922083518155905191810180546001600160a01b0319166001600160a01b03909316929092179091559151909190600282019061050f908261086b565b5060608201516003828101919091556080909201516004909101805460ff191691151591909117905580549060006105468361092b565b91905055505050565b60016020819052600091825260409091208054918101546002820180546001600160a01b039092169291610582906107e2565b80601f01602080910402602001604051908101604052809291908181526020018280546105ae906107e2565b80156105fb5780601f106105d0576101008083540402835291602001916105fb565b820191906000526020600020905b8154815290600101906020018083116105de57829003601f168201915b50505050600383015460049093015491929160ff16905085565b60006020828403121561062757600080fd5b81356001600160a01b038116811461063e57600080fd5b9392505050565b60006020828403121561065757600080fd5b5035919050565b634e487b7160e01b600052602160045260246000fd5b602081016003831061069657634e487b7160e01b600052602160045260246000fd5b91905290565b634e487b7160e01b600052604160045260246000fd5b600080604083850312156106c557600080fd5b823567ffffffffffffffff808211156106dd57600080fd5b818501915085601f8301126106f157600080fd5b8135818111156107035761070361069c565b604051601f8201601f19908116603f0116810190838211818310171561072b5761072b61069c565b8160405282815288602084870101111561074457600080fd5b826020860160208301376000602093820184015298969091013596505050505050565b8581526000602060018060a01b0387168184015260a0604084015285518060a085015260005b818110156107a95787810183015185820160c00152820161078d565b50600060c0828601015260c0601f19601f830116850101925050508360608301526107d8608083018415159052565b9695505050505050565b600181811c908216806107f657607f821691505b60208210810361081657634e487b7160e01b600052602260045260246000fd5b50919050565b601f82111561086657600081815260208120601f850160051c810160208610156108435750805b601f850160051c820191505b818110156108625782815560010161084f565b5050505b505050565b815167ffffffffffffffff8111156108855761088561069c565b6108998161089384546107e2565b8461081c565b602080601f8311600181146108ce57600084156108b65750858301515b600019600386901b1c1916600185901b178555610862565b600085815260208120601f198616915b828110156108fd578886015182559484019460019091019084016108de565b508582101561091b5787850151600019600388901b60f8161c191681555b5050505050600190811b01905550565b60006001820161094b57634e487b7160e01b600052601160045260246000fd5b506001019056fea2646970667358221220661be84f86bd584b10e3592abc1296ec1dc6c817ab02dbd96ae5ae5c5a8f97e064736f6c63430008150033",
  "immutableReferences": {},
  "source": "// SPDX-License-Identifier: MIT\r\npragma solidity ^0.8.0;\r\n\r\ncontract PropertyRental {\r\n    // Struct to store property details\r\n    struct Property {\r\n        uint id;\r\n        address owner;\r\n        string name;\r\n        uint256 pricePerDay;\r\n        bool isAvailable;\r\n    }\r\n\r\n    // Enum for user roles\r\n    enum UserRole { Unregistered, Owner, Renter }\r\n\r\n    // Mapping to store user roles\r\n    mapping(address => UserRole) public userRoles;\r\n\r\n    // Mapping of property IDs to Property structs\r\n    mapping(uint => Property) public properties;\r\n\r\n    // Mapping of renters to their rented properties\r\n    mapping(address => uint) public rentedProperties;\r\n\r\n    // Modifier to check if the caller is an owner\r\n    modifier onlyOwner() {\r\n        require(userRoles[msg.sender] == UserRole.Owner, \"Caller is not an owner\");\r\n        _;\r\n    }\r\n\r\n    // Modifier to check if the caller is a renter\r\n    modifier onlyRenter() {\r\n        require(userRoles[msg.sender] == UserRole.Renter, \"Caller is not a renter\");\r\n        _;\r\n    }\r\n\r\n    // Modifier to check if caller owns a specific property\r\n    modifier isPropertyOwner(uint propertyId) {\r\n        require(properties[propertyId].owner == msg.sender, \"Not the owner of this property\");\r\n        _;\r\n    }\r\n\r\n    // Modifier to ensure a property is available\r\n    modifier isAvailable(uint propertyId) {\r\n        require(properties[propertyId].isAvailable, \"Property not available\");\r\n        _;\r\n    }\r\n\r\n    // Event emitted when a property is rented\r\n    event PropertyRented(uint propertyId, address renter);\r\n\r\n    uint public nextPropertyId;\r\n\r\n    // Function to register as a property owner\r\n    function registerAsOwner() public {\r\n        userRoles[msg.sender] = UserRole.Owner;\r\n    }\r\n\r\n    // Function to register as a renter\r\n    function registerAsRenter() public {\r\n        userRoles[msg.sender] = UserRole.Renter;\r\n    }\r\n\r\n    // Function to add a property (only for owners)\r\n    function addProperty(string memory name, uint256 pricePerDay) public onlyOwner {\r\n        properties[nextPropertyId] = Property({\r\n            id: nextPropertyId,\r\n            owner: msg.sender,\r\n            name: name,\r\n            pricePerDay: pricePerDay,\r\n            isAvailable: true\r\n        });\r\n        nextPropertyId++;\r\n    }\r\n\r\n    // Function to rent a property (only for renters)\r\n    function rentProperty(uint propertyId) public payable onlyRenter isAvailable(propertyId) {\r\n        Property storage property = properties[propertyId];\r\n        require(msg.value == property.pricePerDay, \"Incorrect payment amount\");\r\n\r\n        property.isAvailable = false;\r\n        rentedProperties[msg.sender] = propertyId;\r\n\r\n        emit PropertyRented(propertyId, msg.sender);\r\n    }\r\n\r\n    // Function to return a property (only for property owners)\r\n    function returnProperty(uint propertyId) public isPropertyOwner(propertyId) {\r\n        Property storage property = properties[propertyId];\r\n        property.isAvailable = true;\r\n    }\r\n}",
  "sourcePath": "C:\\Users\\User\\Desktop\\bcea\\contracts\\PropretyRental.sol",
  "compiler": {
    "name": "solc",
    "version": "0.8.21+commit.d9974bed.Emscripten.clang"
  },
  "schemaVersion": "3.4.16",
  "updatedAt": "2025-01-13T19:41:32.069Z",
  "networkType": "ethereum",
  "devdoc": {
    "kind": "dev",
    "methods": {},
    "version": 1
  },
  "userdoc": {
    "kind": "user",
    "methods": {},
    "version": 1
  }
}